:03000000020030CB
:03000B000201FEF1
:100030007580FFD29574381150115D740E115011F6
:100040005D74011150115D74801150115D020062E8
:10005000F5A0C2B1C2B0D2B2115DC2B2227BFFDB49
:10006000FE2274203163115D744D3163115D74495A
:100070003163115D74433163115D74523163115DFD
:10008000744F3163115D74433163115D744F31639B
:10009000115D744E3163115D74543163115D74529E
:1000A0003163115D744F3163115D744C3163115DC7
:1000B000744C3163115D74453163115D7452316369
:1000C000115D74C11150115D74503163115D745232
:1000D0003163115D744F3163115D744A3163115D99
:1000E00074453163115D74433163115D7454316340
:1000F000115D317074011150115D74203163115D17
:1001000074543163115D74453163115D744D316315
:10011000115D74503163115D74203163115D74435E
:100120003163115D744F3163115D744E3163115D44
:1001300074543163115D74523163115D744F3163D6
:10014000115D744C3163115D74203163115D74462F
:0A0150003163115D74413163115DEC
:10015A00744E3163115D02017FF5A0D2B1C2B0D2F3
:10016A00B2115DC2B2227BFF7DFF75752FD575FD79
:10017A00DDF8DBF422D2B5D2B3C2B4D2B420B5FDD5
:10018A00C2B374C11150115D75890275A882A98024
:10019A00E9FC31AAEC1201D81201ED3170020030EB
:1001AA00C3B92300500BC3B91900500AC28C02010B
:1001BA00C231C40201C231CEC322C28C7AAA758C62
:1001CA00FFD28C22C28C7AAA758C1FD28C2275F02F
:1001DA000A84AFF075F00A84AEF0EE2430FEEF2404
:1001EA0030FF22EE3163115DEF3163115D744331EB
:1001FA0063115D22B295C28C8A76D576FDD28CB215
:02020A0095322B
:00000001FF
